:1000000012C0189518951895189518951895189563
:100010001895189518951895189518951895189578
:100020001895189518958FED8DBFC8EBE8EA4E2E00
:10003000DD275D2EA89584B7082E882784BF88E128
:10004000992781BD91BDEEE7F0E0A0E6B0E08827FA
:100050008D933197E9F76624D09AD19A8FEF87BBB9
:100060007FEF77BBB89AB99ABA9ABB9ABC9ABD9AF5
:10007000BE9ABF9A8FEB81BB7FEB71BB889A899A3E
:100080008A9A8B9A8C9A8D9A8E9887E680936100D3
:1000900029D046D087E28093610024D081E080930C
:1000A000620081E0809361009BD0869914C0A2E633
:1000B0008C918F5F8C9300916200053009F009C02C
:1000C00081E08093620048D081E08093610060D03D
:1000D00001C05ED003C081E080936200E6CFFFFFE5
:1000E000F894FFCF5ED162D11AEC77D18AE090E02C
:1000F00045D110E872D18AE090E040D118E46DD18A
:100100008AE090E03BD11091610067D18AE090E0F5
:1001100035D114E762D18AE090E030D155D108950D
:10012000E0E4F3E015D181E080936000009160008D
:100130000A3010F009F00FC00ED1A1E62ED10C92BA
:1001400007D14ED080E991E019D1A0E68C918F5F64
:100150008C9308F4EBCF0895EAE4F3E0F9D081E062
:100160008093600000916000063010F009F00FC02D
:10017000F2D0A1E612D10C92EBD032D080E991E01E
:10018000FDD0A0E68C918F5F8C9308F4EBCF08959F
:10019000C49AC29AC19AC09AD99AD89AC39AA1E627
:1001A0008C918F5F8C9300916100073010F009F003
:1001B00001C003C081E080936100869ABE9AE4E6A4
:1001C000F0E088E592E00197C69ACBD0C698C9D0F6
:1001D000482F492BC1F78CE291E0D0D001D008958F
:1001E00000916100003009F008C0C498C298C1981D
:1001F000C098D998D898C39AA2C0013009F00AC013
:10020000C49AC298C198C09AD99AD89AC39A7EEFD4
:1002100072BB95C0023009F00AC0C498C298C19A56
:10022000C098D998D89AC3987DEF72BB88C0033024
:1002300009F00AC0C498C298C198C098D99AD89AAF
:10024000C3987BEF72BB7BC0043009F00AC0C49A2C
:10025000C298C198C09AD99AD898C39877EF72BBC0
:100260006EC0053009F00AC0C498C29AC198C098FF
:10027000D99AD898C3987FEE72BB61C0063009F056
:100280000AC0C498C29AC198C098D998D898C398FF
:100290007FED72BB54C0073009F00AC0C498C29801
:1002A000C198C09AD99AD89AC39A7FEF72BB47C0B7
:1002B000083009F008C0C498C298C198C098D9986D
:1002C000D898C3983CC0093009F008C0C498C298B7
:1002D000C198C09AD998D898C39831C0A1E68C919A
:1002E00080FBA8E38C9184F98C93A1E68C9181FB2F
:1002F000A8E38C9182F98C93A1E68C9182FBA8E310
:100300008C9181F98C93A1E68C9183FBA8E38C916D
:1003100080F98C93A1E68C9184FBABE38C9181F9FD
:100320008C93A1E68C9185FBABE38C9180F98C9347
:10033000A1E68C9186FBA8E38C9183F98C930895B8
:100340008CC0C8C2FFA4C0A499FFC1898E99F9FFCF
:100350008E2E9F2E0895E82DF92D08953197F1F7EF
:100360000895AE2FBF2F11974A2F4B2BE1F7089519
:10037000689462F80895E89462F80895EF93FF9303
:10038000EE27E82BE92B31F0E8EEF3E03197F1F7B7
:100390000197D1F7FF91EF910895C895319600200C
:1003A0000895BD98BF98C598C7980895BF9ABD98FD
:1003B00003D0BF9801D0BD9AEF93FF93E1E0F0E046
:1003C000CDDFFF91EF910895BF9ABD9AF5DFBF98F9
:1003D000B79BFECFF1DFBD98EFCF0894111F01C08E
:1003E000110F69F0BF9A18F40000BD9802C0BD9AC1
:1003F00000C0E2DFBF98B79BFECFDEDFF1CFBF9A30
:10040000BD98DADFBF98B79BFECFE894B5996894A2
:0404100062F8D2CFED
:00000001FF
